:1000000010C01FC01EC01DC01CC01BC01AC019C01C
:1000100018C017C016C015C014C013C012C011C03C
:1000200010C011241FBECFE5D1E0DEBFCDBF20E060
:10003000A0E6B0E001C01D92AA36B207E1F702D0F7
:10004000A3C0DECF80E886BD16BC83E380BF81E01D
:1000500083BFB898C09AC298BA9A81E090E0909312
:10006000690080936800E0E0F0E846E9CFEFB09BDC
:10007000FECF2091680030916900B901672F772782
:100080006695622773276170772770936700609386
:100090006600762F6627770F770F36952795622BA8
:1000A000732B7093690060936800CF0159D07093EF
:1000B00065006093640010926300109262002091CA
:1000C0006200309163008091640090916500281770
:1000D000390768F64CBF10926100109260002091C1
:1000E000600030916100809168009091690028174C
:1000F000390770F48DE08A95F1F700008091600077
:100100009091610001969093610080936000E7CF29
:10011000CCBF10926100109260002091600030917D
:10012000610080916800909169002817390770F488
:100130008DE08A95F1F70000809160009091610058
:1001400001969093610080936000E7CF80916200F8
:100150009091630001969093630080936200AFCF0B
:10016000AA1BBB1B51E107C0AA1FBB1FA617B707DD
:1001700010F0A61BB70B881F991F5A95A9F78095F9
:0C0180009095BC01CD010895F894FFCFCC
:00000001FF
