:100000002BC076C144C043C042C041C040C03FC0C5
:100010003EC03DC03CC03BC03AC039C038C037C00C
:1000200036C009021200010100801409040000001A
:10003000FF00000012011001FF00000881179F0C53
:100040000401000200010E03460061006200490045
:10005000530050000403090411241FBECFE5D1E072
:10006000DEBFCDBF10E0A0E6B0E0EEEDF7E002C0ED
:1000700005900D92A236B107D9F710E0A2E6B0E0E4
:1000800001C01D92A53AB107E1F78CD3A6C3B8CF42
:10009000CF93DF9360918B00635067FDA4C02091E4
:1000A00088008CE090E0821B9109EC01C157DF4F82
:1000B000209187002D3209F084C0683009F091C08A
:1000C00023EC20937B002AE52093600010926200CD
:1000D0002881207631F0CE0163D28F3F09F460C0D1
:1000E00066C03A81109284002981222331F4109253
:1000F000850024E830E082E04EC0253019F43093CA
:100100008C003FC02630A1F5FC01EF56FF4F208147
:100110008E569F4FFC018081813019F484E390E07A
:1001200004C0823041F482E290E090938A00809390
:10013000890082E119C08330B1F4222341F484E5BF
:1001400090E090938A008093890084E00DC0213074
:1001500051F0223041F486E490E090938A0080933D
:1001600089008EE001C080E090E4909362001FC09F
:10017000283059F0293019F430938E0002C02A300B
:1001800039F024E830E080E006C02EE830E002C01C
:1001900024E830E081E030938A002093890007C092
:1001A000988197FD8E8190E89093620007C09F81AF
:1001B000992321F49E81981708F4892F8093610078
:1001C00010C08091620087FF0CC0CE019ED28F3F8D
:1001D00021F48EE18093600004C0882311F0109216
:1001E000610010928B008091600084FF54C0809168
:1001F00061008F3F09F44FC0C82F893008F0C8E074
:100200008C1B8093610080917B0098E88927809304
:100210007B00CC2379F12091620027FF08C08CE796
:1002200090E06C2F52D2C82F893078F523C080918E
:10023000890090918A0026FF0AC0FC012C2FACE7B0
:10024000B0E034913D9331962150D9F708C0DC01DC
:100250002C2FECE7F0E03D9131932150E1F72C2F6A
:10026000215030E02F5F3F4F280F391F30938A0015
:10027000209389008CE790E06C2F36D0CC5FCC3097
:1002800041F08FEF8093610004C08FEF8093610095
:10029000CEE1C093600084E199B3917831F481504C
:1002A000D9F710928C0010928600DF91CF910895BB
:1002B00085B7826085BF8BB780648BBF0895A82FF8
:1002C000B92F80E090E041E050EA609530E009C04D
:1002D0002D9182279795879510F084279527305E7A
:1002E000C8F36F5FA8F30895EADF8D939D93089597
:1002F000CF93CFB7CF93DF93C395C89BE9F7C89B44
:1003000011C0C89B0FC0C89B0DC0C89B0BC0C89B29
:1003100009C0C89B07C0C89B05C0C89B03C0C89B39
:1003200001C081C06F93C0918800DD27C157DF4FA6
:100330002F9320E400C065E0C89B03C02F916F910C
:10034000DECF0F931F934F9345E55F9355E53F93A2
:100350003BE010E809B301782EC06A95C9F031502E
:10036000D8F109B3017801130BC00894279529939C
:1003700020E4555500F46A9569F701E069B30BC0B4
:10038000102F66E02695299320E4555518F3E2CF07
:100390000FEF69B30000162F455500F0404066E0AE
:1003A00011780030E2F221F0000009B3017803C0B7
:1003B00009B30178A9F0011309C00894279568F2E0
:1003C00000C06A95A9F700E069B3E5CF102F66E099
:1003D000269528F20000ECCF10E41ABF002717C0C2
:1003E0003B503195C31BD04010E41ABF0881033C39
:1003F000F9F00B34E9F0209186001981110F1213E6
:10040000EDCF093651F10D3211F0013E39F700936D
:100410008D003F915F914F911F910F912F916F919F
:10042000CAB7C6FD69CFDF91CF91CFBFCF911895E5
:1004300020918D00222369F310918B00112329F55F
:1004400034302AF130938B0020938700109188007C
:100450003BE0311B309388001AC000918B000130C3
:10046000A4F40AE53091600034FD12C000936000EE
:10047000CBE7D0E011C0052710E000C00BBB19C0CE
:10048000052710E0221F00C01DC04AE502C032ED62
:10049000432FC4E1D0E032E01AB31168D89A0BB30D
:1004A0001ABB51E820E869E420FF05270BBB27951C
:1004B000179500C000001C3FF0F66695A8F7A1F75D
:1004C00020FF05270BBB2795179500001C3FC0F6A2
:1004D00029913A9541F70E7710918C00110F0BBBC3
:1004E000C651D04011F01093860010E41ABF01608D
:1004F0001AB31E77402F4E7755E05A95F1F70BBB94
:100500001ABB4BBB86CFFC01DB0134E0519188E084
:1005100090E040E820E0642F652309F0DE9A6091C6
:100520006B00062E00C000000A94E1F7DC9A60918F
:100530006B00062E00C000000A94E1F7220FCD994F
:100540002F5FDE98DC984695019729F72D9331505F
:10055000E9F6089580916E0090916F009C012F5FE5
:100560003F4F30936F0020936E002091700027FF63
:1005700002C0880F991F2093770080FF03C0286076
:1005800020937700292F26952093780096958795BC
:100590008093790087E790E063E770E0B4DF089527
:1005A000CF93DF93FC012181222379F4A3E6B0E00D
:1005B00088E02A2F9B2F31913D938150E1F72093C2
:1005C000890090938A0088E07DC04481A42FB0E028
:1005D000213059F48C918093630083E690E09093EE
:1005E0008A008093890081E06DC03281223011F44D
:1005F0003C9367C0532F577081E090E001C0880F93
:100600005A95EAF7233021F480959C91982304C0F1
:10061000243021F49C91982B9C9353C0253079F47D
:1006200030936B00442311F492E001C09AE08AB346
:100630008A658ABB8BB3857A892B8BBB42C02630F7
:1006400041F4DB9A8BB3857A8BBB8AB3857A8ABBFC
:1006500038C08BB38823A9F1273061F4C3E6D0E01A
:10066000CF010296BE014FDFD0938A00C09389006C
:1006700084E028C0283031F430936C00838180936B
:100680006D001FC08481958190936F0080936E00F0
:10069000293011F480E211C02B3011F480EA0DC032
:1006A0008281938190937200809371002A3011F4BB
:1006B00080E403C02C3029F480EC809370008FEF2D
:1006C00001C080E0DF91CF910895EF92FF921F93D8
:1006D000CF93DF930F92CDB7DEB7182F862FE12E81
:1006E000F92E08C0898336DF90917600F701919347
:1006F0007F0189819E2D911B9817A0F30F90DF91A8
:10070000CF911F91FF90EF900895DF92EF92FF92AB
:100710000F931F93CF93DF93182F062FE82EF92EF8
:1007200050E6D52E32C0F70181917F0180937A0087
:1007300011DF809177008D2580937700C0E0D0E0B5
:100740001DC087E790E063E770E0DDDE8091760012
:1007500090917A00891741F490916C00891721F0EB
:1007600090916D00891789F420916B0030E045E08D
:10077000220F331F4A95E1F7C20FD31F80917100FA
:1007800090917200C817D907E0F28E2D811B801757
:1007900050F281E0DF91CF911F910F91FF90EF9088
:1007A000DF9008952EE088E190E00FB6F894A895C8
:1007B00081BD0FBE21BD7CDDD09A80E007C0A89529
:1007C000E7E8F3E13197F1F700C000008150B9F795
:0E07D000D0987894A8955CDCFDCFF894FFCF0C
:0207DE005AFFC0
:00000001FF
