:1000000010C022C021C020C01FC01EC01DC01CC007
:100010001BC01AC019C018C017C016C015C014C024
:1000200013C011241FBECFE5D1E0DEBFCDBF10E06D
:10003000A0E6B0E0E4E5F6E002C005900D92A4363B
:10004000B107D9F73FD004C3DBCF2F923F9221E015
:1000500030E0A90102C0440F551F8A95E2F7CA019A
:10006000242F209541E050E09BB392239BBB6FED82
:1000700093E9E4E061509040E040E1F700C0000007
:100080009BB3982B9BBBFFED33E964E0F15030400C
:100090006040E1F700C000009BB392239BBB9FED43
:1000A000E3E9F4E09150E040F040E1F700C00000E7
:1000B000F10153834283CB9902C0B29BD5CF3F90CD
:1000C0002F900895CF93DF93CDB7DEB728970FB663
:1000D000F894DEBF0FBECDBF8AB388708ABBDB9AAF
:1000E000D29ADA9A87B3847087BBC29AD79ADF9A7A
:1000F00081E090E09C838B8318861F821E821D8284
:100100008AE090E09A83898388EEE82E83E0F82ED7
:10011000CC24C394D12C8B819C81019709F065C0BC
:10012000DF98DA982FE936E841E02150304040402E
:10013000E1F700C00000DF9ADA9A8FE39DE0E3E088
:1001400081509040E040E1F700C00000DF98DA986D
:10015000FFE32DE033E0F15020403040E1F700C0F4
:100160000000DF9ADA9A4FE38DE093E0415080403F
:100170009040E1F700C00000DF98DA98EFE3FDE07F
:1001800023E0E150F0402040E1F700C00000DF9A9A
:100190003FE34DE083E0315040408040E1F700C054
:1001A0000000DA9A9FEDE3E9F4E09150E040F0407E
:1001B000E1F700C00000DF982FE33DE043E021506D
:1001C00030404040E1F700C00000DA988FED93E93D
:1001D000E4E081509040E040E1F700C000001C8264
:1001E0001B8218861F821E821D82CB9B12C0B29B6F
:1001F00010C0FFE724E83EE1F15020403040E1F735
:1002000000C00000CB9B05C0B29B03C0DC82CB8248
:1002100082CFCB9902C0B29B9BC0CB9B02C0B2994C
:1002200097C04FEF84E39CE0415080409040E1F75D
:1002300000C00000CB9905C0B29B8AC080E090E06E
:100240001EC080E090E02F81388582179307A4F7C5
:10025000DA98EFE3F2E42FE0E150F0402040E1F7DC
:1002600000C00000DA9A3FE342E4EFE03150404042
:10027000E040E1F700C00000DA980196E4CF2D815C
:100280003E81821793070CF063C0DF98FFE322E4FE
:100290003FE0F15020403040E1F700C00000DF9A1D
:1002A0004FE3E2E4FFE04150E040F040E1F700C0FE
:1002B0000000DF980196E3CF80E090E0DF98DA98C5
:1002C0002FED32E242E0215030404040E1F700C0E3
:1002D0000000DF9ADA9AEFEDF2E222E0E150F0401E
:1002E0002040E1F700C00000DF98DA9801968017FF
:1002F000910724F30130110571F501501109E1F660
:10030000CB9B44C0CB9B45C08F8198850196988735
:100310008F83DA988FE493EC0197F1F700C0000027
:10032000DA9A9FE3E2E4FFE09150E040F040E1F729
:1003300000C00000DA988F81988529813A81821760
:1003400093070CF040C04D815E8142175307DCF5E6
:1003500003E010E0B1CF3FE342E48FE03150404092
:100360008040E1F700C00000A4D0B7013AD020E0FF
:1003700030E0281739070CF0C0CFE7E8F3E13197F8
:10038000F1F700C000002F5F3F4FF3CFB29BB8CF13
:10039000B9CFB29BD0CF8D819E8101969E838D83F4
:1003A000DF988FE493EC0197F1F700C00000DF9A2B
:1003B0009FE3E2E4FFE09150E040F040E1F700C04D
:1003C0000000DF98B8CF0B9734F09E012F5F3F4FAE
:1003D000190182E004C0CE0101961C0187E035DEE0
:1003E0009ACE97FB072E16F4009406D077FD08D01E
:1003F0000BD007FC05D03EF4909581959F4F089552
:10040000709561957F4F0895AA1BBB1B51E107C0F2
:10041000AA1FBB1FA617B70710F0A61BB70B881F94
:10042000991F5A95A9F780959095BC01CD01089523
:10043000A0E0B0E0EDE1F2E08AC0EC0168817981F2
:100440008A819B81611571058105910521F464E222
:1004500079ED8BE597E02DE133EF41E050E038D0C6
:1004600049015A0127EA31E440E050E04DD06901EA
:100470007A01C501B4012CEE34EF4FEF5FEF44D0A9
:10048000022F132F9A01D701C601800F911FA21FBF
:10049000B31FB7FF03C00197A109B04888839983B0
:1004A000AA83BB839F77CDB7DEB7ECE06CC0C0DF1B
:1004B000089580E690E0BCDF0895A0E0B0E080936E
:1004C000600090936100A0936200B0936300089570
:1004D000052E97FB16F400940FD057FD05D068D079
:1004E00007FC02D046F408C0509540953095219500
:1004F0003F4F4F4F5F4F0895909580957095619550
:100500007F4F8F4F9F4F089568940013E894A0E0A9
:10051000B0E0ECE8F2E01DC0EFEFE7F959016A0145
:100520005E23550FEE08FE2C87019B01AC019E2334
:10053000990F660B762FCB015DD0CDB7DEB7EAE021
:1005400024C02F923F924F925F926F927F928F9230
:100550009F92AF92BF92CF92DF92EF92FF920F9352
:100560001F93CF93DF93CDB7DEB7CA1BDB0B0FB65C
:10057000F894DEBF0FBECDBF09942A883988488819
:100580005F846E847D848C849B84AA84B984C884AF
:10059000DF80EE80FD800C811B81AA81B981CE0FA6
:1005A000D11D0FB6F894DEBF0FBECDBFED0108958B
:1005B000A1E21A2EAA1BBB1BFD010DC0AA1FBB1F67
:1005C000EE1FFF1FA217B307E407F50720F0A21BD9
:1005D000B30BE40BF50B661F771F881F991F1A9446
:1005E00069F760957095809590959B01AC01BD0170
:1005F000CF010895DF93CF939F92A0E49A2E002419
:10060000D001E001F00116950795F794E794D7948F
:10061000C794B794A79448F41068A20FB31FC41FDF
:10062000D51FE61FF71F081E191E220F331F441F78
:10063000551F661F771F881F991F9A9421F79D01E8
:10064000AE01BF01C00111249F90CF91DF910895A9
:04065000F894FFCF4C
:0406540001000000A1
:00000001FF
